:100000000C942A000C9447000C9447000C94470071
:100010000C9447000C9447000C9447000C94470044
:100020000C9447000C9447000C9447000C94470034
:100030000C9447000C9447000C9447000C94470024
:100040000C9447000C9447000C9447000C94470014
:100050000C94470011241FBECFE5D4E0DEBFCDBF16
:1000600011E0A0E6B0E0EAE1FBE002C005900D92ED
:10007000A233B107D9F711E0A2E3B1E001C01D92AC
:10008000A233B107E1F70E9498020C948B050C94FF
:100090000000282F392FECE3F0E0808181FDFDCFB7
:1000A000822F932F9FBB8EBBECE3F0E080818160B9
:1000B00080838DB30895282F392FECE3F0E0808101
:1000C00081FDFDCF822F932F9FBB8EBB6DBB0FB6E3
:1000D000F894E29AE19A0FBE0895282F207FE8E372
:1000E000F0E0208320812E7F208320812D7F2083BC
:1000F0002081246020834AEF50E0DA011197F1F764
:1001000020812B7F2083DA011197F1F790E082950F
:100110009295907F9827807F9827808380818E7F1B
:10012000808380818D7F8083808184608083CA0109
:100130000197F1F780818B7F8083CA010197F1F7E6
:100140000895282F207FE8E3F0E0208320812160BC
:10015000208320812D7F20832081246020834AEF0B
:1001600050E0DA011197F1F720812B7F2083DA012B
:100170001197F1F790E082959295907F9827807F74
:100180009827808380818160808380818D7F8083B8
:10019000808184608083CA010197F1F780818B7F21
:1001A0008083CA010197F1F708951F93CF93DF93DE
:1001B000EC018881882371F010E00E94A1001F5F8C
:1001C000812F992787FD9095FE01E80FF91F808107
:1001D000882399F7DF91CF911F9108952F923F9235
:1001E0004F925F926F927F928F929F92AF92BF9247
:1001F000CF92DF92EF92FF920F931F93DF93CF93F3
:1002000000D000D00F92CDB7DEB70F2EF4E37F2ED3
:10021000F02D0F2EF3E38F2EF02D0F2EF2E39F2EF5
:10022000F02D0F2EF1E3AF2EF02DBB2466240F2E00
:10023000F2E3EF2EFF24F02D0F2EF2EECF2EF4E09E
:10024000DF2EF02D09E310E01D82D3C034E345E337
:1002500056E367E37BE0A1E4B2E40F2EF7E05F2E04
:10026000F02D0F2EF3E44F2EF02D0F2EF4E43F2E41
:10027000F02D0F2EF5E42F2EF02D8EE0F701808368
:10028000C6010197F1F7F801808180FF02C02D813E
:1002900005C0F801808180FFFCCF20E3F801808158
:1002A00081FD05C0F801808181FFFCCF21E3F801C9
:1002B000808182FD05C0F801808182FFFCCF22E3AE
:1002C000F801808183FD05C0F801808183FFFCCFA8
:1002D00023E38DE0F7018083C6010197F1F7F80170
:1002E000808180FD05C0F801808180FFFCCF232F35
:1002F000F801808181FD05C0F801808181FFFCCF7C
:10030000242FF801808182FD05C0F801808182FFE1
:10031000FCCF252FF801808183FD05C0F801808185
:1003200083FFFCCF262FF7017083C6010197F1F7F9
:10033000F801808180FD05C0F801808180FFFCCF3D
:1003400028E3F801808181FD05C0F801808181FFEB
:10035000FCCF29E3F801808182FD05C0F80180818E
:1003600082FFFCCF2A2FF801808183FD05C0F801B0
:10037000808183FFFCCF2B2FF7015082C6010197AC
:10038000F1F7F801808180FD05C0F801808180FFD0
:10039000FCCF242DF801808181FD05C0F80180810A
:1003A00081FFFCCF232DF801808182FD05C0F8017B
:1003B000808182FFFCCF222DF801808183FD06C061
:1003C000F801808183FFFCCF26E403C0222309F4D7
:1003D00054CFE1E0F0E0EC0FFD1FEB0DF11D2083A9
:1003E0008B2D80540E946D0080E690E00E94D50025
:1003F000B394F3E0FB1508F029CF81E00E946D0073
:1004000089818A1591F48A81891579F48B818815FF
:1004100061F48C81871549F482E690E00E94D50052
:1004200028E833E149E150E044C083E790E00E94CE
:10043000D50028E833E149E150E0CA010197F1F71E
:1004400021503040D1F728E833E149E150E0CA01BA
:100450000197F1F721503040D1F728E833E149E125
:1004600050E0CA010197F1F721503040D1F728E858
:1004700033E149E150E0CA010197F1F721503040E2
:10048000D1F781E00E946D0082E890E00E94D500E3
:10049000639482E0861510F0BB24ABCF81E00E940C
:1004A0006D0080E80E946D0083E990E00E94D50015
:1004B000FFCFCA010197F1F721503040D1F728E86A
:1004C00033E149E150E0CA010197F1F72150304092
:1004D000D1F728E833E149E150E0CA010197F1F78B
:1004E00021503040D1F728E833E149E150E0CA011A
:1004F0000197F1F721503040D1F781E00E946D0063
:100500000F900F900F900F900F90CF91DF911F9150
:100510000F91FF90EF90DF90CF90BF90AF909F90A2
:100520008F907F906F905F904F903F902F900895A5
:100530002F923F924F925F926F927F928F929F92F3
:10054000AF92BF92CF92DF92EF92FF920F931F93E1
:10055000DF93CF93CDB7DEB7C255D0400FB6F89436
:10056000DEBF0FBECDBF8FEF87BB81BB1ABA84BB86
:100570008BBB09E410E0B80180E090E00E941B050D
:100580002C01B80182E090E00E941B053C01B801FB
:1005900084E090E00E941B054C01B80186E090E0E9
:1005A0000E941B055C0182E00E946D0088E20E94AF
:1005B0006D0086E00E946D008CE00E946D00DD24DD
:1005C000D39480E80E946D0081EA90E00E94D500FB
:1005D00080EC0E946D008CEA90E00E94D5000F2E06
:1005E000F9E3EF2EFF24F02D0F2EFDE0CF2EF02D9E
:1005F0000F2EF0E22F2EFEE43F2EF02D09E110E049
:100600000DC180E80E946D0081EA90E00E94D50053
:1006100080EC0E946D008CEA90E00E94D500E2E33D
:10062000F0E0C082F701808180FD71C0F701808118
:1006300080FFFCCF4BE550E0B50186E090E00E94E2
:10064000310581E00E946D0080E80E946D008BEB17
:1006500090E00E94D50082E80E946D004AE050E0E0
:10066000BE016F5F7F4FC2010E944605CE01019619
:100670000E94D50088E80E946D008EEB90E00E94F9
:10068000D5008AE80E946D004AE050E0BE016F5E2E
:100690007F4FC3010E944605CE0141960E94D500BE
:1006A00080EC0E946D0081EC90E00E94D50082EC0D
:1006B0000E946D004AE050E0BE016F5D7F4FC401B3
:1006C0000E944605CE0181960E94D50088EC0E94CA
:1006D0006D0084EC90E00E94D5008AEC0E946D00D1
:1006E0004AE050E0BE016F5B7F4FC5010E944605A6
:1006F000CE018F5B9F4F0E94D5009101C8010197E9
:10070000F1F721503040D1F781E00E946D00F701F0
:10071000808181FD2AC0F701808181FFFCCF81E0CB
:100720000E946D0087EC90E00E94D50080EC0E9452
:100730006D00C301840D951D880D991D4AE050E0A0
:10074000BE016F5C7F4F8A0D9B1D0E944605CE0146
:10075000C1960E94D5009101C8010197F1F721507F
:100760003040D1F781E00E946D00F701808182FF67
:1007700003C0DD24D39452C0F701808182FFFCCFF7
:1007800081E00E946D0086ED90E00E94D5000E94FD
:10079000EE004BE550E060E070E080E090E00E9409
:1007A00031054BE550E060E070E082E090E00E94AF
:1007B00031054BE550E060E070E084E090E00E949D
:1007C00031054BE550E060E070E086E090E00E948B
:1007D000310581E00E946D0080E80E946D0085EE89
:1007E00090E00E94D50080EC0E946D0084EF90E0C4
:1007F0000E94D5009101C8010197F1F721503040C6
:10080000D1F781E00E946D00AA24BB24882499249A
:100810006624772444245524DD24D394F701808171
:1008200083FDEFCE3D2C6396BFAEAEAE639781E005
:100830000E946D00F1E0DF1609F0C3CE0F2EF9E340
:10084000EF2EFF24F02D2224239409E110E0CC2484
:1008500080E80E946D008FEF90E00E94D50080EC50
:100860000E946D0080E191E00E94D50080E80E9426
:100870006D00E2E3F0E01082F701808184FF02C0A6
:10088000D32C31C0F701808184FFFCCF0894411C38
:10089000511C4BE550E0B20180E090E00E94310530
:1008A000E5E3F0E02082822D0E946D0080E80E9446
:1008B0006D0085E191E00E94D50080EC0E946D0002
:1008C00083E291E00E94D50020E137E2C801019760
:1008D000F1F721503040D1F7E5E3F0E01082822DAE
:1008E0000E946D00DC2CF701808185FD31C0F7018D
:1008F000808185FFFCCF0894611C711C4BE550E0A2
:10090000B30182E090E00E943105E5E3F0E020824F
:10091000822D0E946D0080E80E946D0085E191E0CB
:100920000E94D50080EC0E946D0083E291E00E945D
:10093000D50020E137E2C8010197F1F7215030409E
:10094000D1F7E5E3F0E01082822D0E946D00DC2CEF
:10095000F701808186FD31C0F701808186FFFCCFE1
:100960000894811C911C4BE550E0B40184E090E0B8
:100970000E943105E5E3F0E02082822D0E946D00A7
:1009800080E80E946D0085E191E00E94D50080EC36
:100990000E946D0083E291E00E94D50020E137E2E1
:1009A000C8010197F1F721503040D1F7E5E3F0E0BD
:1009B0001082822D0E946D00DC2CF701808188233B
:1009C000ACF1E9E3F0E080818823ECF76396AEAC0C
:1009D000BFAC63970894A11CB11C4BE550E0B50176
:1009E00086E090E00E94310581E085BB0E946D00A9
:1009F00080E80E946D0085E191E00E94D50080ECC6
:100A00000E946D0083E291E00E94D50020E137E270
:100A100049E150E0CA010197F1F721503040D1F788
:100A200015BA81E00E946D00DD24CBCDF1E0DF1628
:100A300009F0C7CD0DCFDF92EF92FF920F931F9376
:100A40007B018C01FB010995D82EC8010196F701A5
:100A50000995982F8D2D1F910F91FF90EF90DF90AA
:100A60000895DF92EF92FF920F931F93D72E7A0192
:100A70008C01FA0109956D2DC8010196F7010995C0
:100A80001F910F91FF90EF90DF900895FB019F0160
:100A9000E8944230C4F04532B4F44A3029F497FB6C
:100AA0001EF4909581959F4F642F77270E947705BC
:100AB000805D8A330CF0895D8193CB010097A1F7AB
:100AC00016F45DE251931082C9010C946705DC01B4
:100AD000FC01672F71917723E1F7329704C07C9175
:100AE0006D9370836291AE17BF07C8F30895AA1B78
:100AF000BB1B51E107C0AA1FBB1FA617B70710F009
:100B0000A61BB70B881F991F5A95A9F7809590953A
:0A0B1000BC01CD010895F894FFCF59
:100B1A002A00436F72726563742050617373776F32
:100B2A0072640057726F6E672050617373776F72C9
:100B3A0064005265656E7465722050617373776FD5
:100B4A0072640045564D206973204C6F636B65646F
:100B5A0000456C656374726F6E696300566F7469E1
:100B6A006E67204D616368696E6500413D00423DD4
:100B7A0000433D00443D00546F74616C20566F740D
:100B8A006573203D2000456E746572205061737351
:100B9A00776F7264005468652053797374656D20A9
:100BAA00686173006265656E2052657365740050F2
:100BBA006C65617365204361737420796F75720087
:100BCA00566F746500596F757220566F7465206888
:100BDA006173006265656E205265636F7264656455
:020BEA00000009
:00000001FF
